:020000040800F2
:10000000003000202D2D0008CD2A0008DB2A000832
:10001000E12A0008E72A0008ED2A00080000000095
:10002000000000000000000000000000F32A0008AB
:10003000012B0008000000000F2B00081D2B0008FA
:100040007D2D00087D2D00087D2D00087D2D0008E8
:100050007D2D00087D2D00087D2D00087D2D0008D8
:100060007D2D00087D2D00087D2D00087D2D0008C8
:100070007D2D00087D2D00087D2D00087D2D0008B8
:100080007D2D00087D2D00087D2D00087D2D0008A8
:100090007D2D00087D2D00087D2D00087D2D000898
:1000A0007D2D0008292B00083D2B00087D2D000820
:1000B0007D2D00087D2D0008000000007D2D00082A
:1000C0007D2D000800000000000000007D2D0008CC
:1000D000000000007D2D00087D2D00087D2D00080A
:1000E0007D2D00087D2D00080000000000000000AC
:1000F0000000000000000000000000000000000000
:1001000000000000000000000000000000000000EF
:100110000000000000000000512B00087D2D0008A9
:1001200000000000000000000000000000000000CF
:1001300000000000000000000000000000000000BF
:100140007D2D00087D2D000800000000000000004B
:10015000000000000000000000000000000000009F
:10016000000000000000000000000000000000008F
:10017000000000000000000000000000000000007F
:08018000000000007D2D0008C5
:1001900010B5054C237833B9044B13B10448AFF3C1
:1001A00000800123237010BD7000002000000000BB
:1001B000808A000808B5034B1BB103490348AFF31D
:1001C000008008BD0000000074000020808A000844
:1001D00001F0FF01102A2BDB10F0070F08D010F8F8
:1001E000013B013A8B422DD010F0070F42B3F6D1FC
:1001F000F0B441EA012141EA014122F007047FF015
:1002000000070023F0E80256083C85EA010586EA6B
:10021000010685FA47F5A3FA87F586FA47F6A5FAA7
:1002200087F68EB9EED1F0BC01F0FF0102F00702B3
:1002300032B110F8013B013A83EA010313B1F8D15E
:100240000020704701387047002D06BF354603383F
:10025000073815F0010F07D1013015F4807F02BF78
:10026000013015F4C03F0130F0BC0138704700BFC9
:1002700080B582B000AF0346FB710B46BB711346DD
:100280007B71FB791A4601210A4804F0EBF9BB792E
:100290001A464FF480514FF0904004F0E3F97B7917
:1002A0001A460121044804F0DDF900BF0837BD46B5
:1002B00080BD00BF001400480004004880B582B033
:1002C00000AF0346FB71FB791A464FF400714FF003
:1002D000904004F0C7F900BF0837BD4680BD00005C
:1002E00080B582B000AF78607968384807F0EEFAE0
:1002F0007B68DBB203F00103D8B27B68DBB203F0AA
:100300000203D9B27B68DBB203F00403DBB21A4606
:10031000FFF7AEFF4FF480714FF0904004F08AF980
:100320000346002B18D1642002F090FD00BF4FF46B
:1003300080714FF0904004F07DF90346002BF6D019
:100340007B6801337B607B68072B01DD00237B60CA
:1003500079681E4807F0BAFA4FF400614FF09040F8
:1003600004F068F90346002B18D1642002F06EFDFA
:1003700000BF4FF400614FF0904004F05BF903467A
:10038000002BF6D07B68013B7B607B68002B01DA99
:1003900007237B6079680D4807F098FA02210C4822
:1003A00004F048F90346002BA2D1642002F04EFD70
:1003B00000BF0221064804F03DF90346002BF8D0A7
:1003C0007B6818460837BD4680BD00BF988A000884
:1003D0000014004880B584B000AF78607B680A2BB9
:1003E00008D10D23FB6007F10C010123012207480E
:1003F00006F064FE391D01230122044806F05EFE6A
:10040000002318461037BD4680BD00BF50050020B0
:1004100080B500AF054A138843F008031380DB2042
:1004200000F0A6F802F05AF900BF80BD8C00002051
:1004300080B500AF044A138843F008031380DB2023
:1004400000F0C8F800BF80BD8C00002080B500AF70
:10045000074A138843F008031380DB2000F016F9E5
:10046000DB2000F013F902F039F900BF80BD00BFB6
:100470008C00002080B500AF0A4A13886FF3C303D5
:100480001380102000F018FA322002F0DFFC9F20C9
:1004900000F02CF9322002F0D9FC002000F00CFA18
:1004A00000BF80BD8C00002080B500AF0A4A1388D1
:1004B0006FF3C3031380012000F0FEF9322002F035
:1004C000C5FC9F2000F012F9322002F0BFFC002092
:1004D00000F0F2F900BF80BD8C00002080B500AFB5
:1004E0000B4A13886FF3C3031380102000F0E4F964
:1004F000322002F0ABFC4FF49E7000F0F7F832208F
:1005000002F0A4FC002000F0D7F900BF80BD00BFBE
:100510008C00002080B582B000AF0346FB71134A07
:1005200013886FF3C3031380112000F0C5F9322044
:1005300002F08CFC4FF4967000F0D8F8322002F0F4
:1005400085FCFB79002B01D002F0AAF8002000F016
:10055000B3F9322002F07AFC5E2000F0C7F83220B6
:1005600002F074FC00BF0837BD4680BD8C0000203F
:1005700080B582B000AF0346FB80134A13886FF347
:1005800045131380104A13886FF3861313800E4AA5
:10059000138843F01003138000F02AF900F03EF9AD
:1005A00000BF0A4B1B889BB2FA889A42F9D8084BC5
:1005B0001B889BB2FA889A42F3D800F065F900BF15
:1005C0000837BD4680BD00BF8C000020960000208B
:1005D0009800002080B584B000AF0346FB80264A17
:1005E00013886FF345131380234A13886FF3861320
:1005F0001380214A13886FF30413138000F00EF95F
:100600001E4B1B881BB29AB21D4B1B881BB29BB2A0
:10061000D31A9AB2FB8813449BB2FB81B7F90E3010
:10062000002B10DD00BF174B1B889BB21A46B7F991
:100630000E309A42F7DB144B1B889BB21A46B7F96F
:100640000E309A42EFDB0C4A138843F020031380EC
:1006500000BF0C4B1B889BB2FA889A42F9D80A4B10
:100660001B889BB2FA889A42F3D800F00DF900BFBC
:100670001037BD4680BD00BF8C00002092000020D6
:100680008E000020960000209800002080B582B0E7
:1006900000AF0346FB80124A13886FF345131380A3
:1006A0000F4A13886FF3861313800D4A13886FF374
:1006B0000413138000F0B2F800BF0A4B1B889BB2F2
:1006C000FA889A42F9D8084B1B889BB2FA889A425A
:1006D000F3D800F0D9F800BF0837BD4680BD00BF91
:1006E0008C000020960000209800002080B582B089
:1006F00000AF0346FB80124A13886FF34513138043
:100700000F4A138843F0400313800D4A13886FF398
:100710000413138000F082F800BF0A4B1B889BB2C1
:10072000FA889A42F9D8084B1B889BB2FA889A42F9
:10073000F3D800F0A9F800BF0837BD4680BD00BF60
:100740008C000020960000209800002080B500AFAB
:10075000104BDB221A80104B00221A800F4B002214
:100760001A8000F033F8002000F0A6F80C4B1B684C
:1007700040F6B832DA620A4B40F6B832DA60094B1A
:100780001B6840F6B832DA62064B40F6B832DA60DF
:1007900000BF80BD94000020920000208C0000204B
:1007A000B80400200405002080B500AF002280219D
:1007B000054803F057FF002220214FF0904003F03E
:1007C00051FF00BF80BD00BF0004004880B500AFEE
:1007D00001228021054803F045FF012220214FF02E
:1007E000904003F03FFF00BF80BD00BF0004004801
:1007F00080B400AF064B1B881AB2064B1146198015
:10080000054B1A8000BFBD465DF8047B704700BFF2
:1008100092000020900000208E00002080B500AFE4
:100820000021154B0A461A80144B0A461A80144BB5
:100830001B686FF001021A61114B1B68DA68104BDC
:100840001B6842F00102DA6000210D4805F0CAFB86
:100850000C4B1B686FF001021A610A4B1B68DA68C7
:10086000084B1B6842F00102DA600021054805F0E0
:10087000B9FB00BF80BD00BF98000020960000209B
:10088000B80400200405002080B500AF002108480E
:1008900005F094FC0021074805F090FC044B1B6810
:1008A00000225A62034B1B6800225A6200BF80BDBF
:1008B000B80400200405002080B582B000AF0346D4
:1008C000FB71FB7903F00F03002B02D0012B06D044
:1008D0000BE001220821174803F0C4FE05E00022C6
:1008E0000821144803F0BEFE00BFFB7903F0F003BB
:1008F000002B02D0102B0CD017E0002240210D4815
:1009000003F0B0FE002240214FF0904003F0AAFE19
:100910000BE001224021074803F0A4FE0122402100
:100920004FF0904003F09EFE00BF00BF0837BD4669
:1009300080BD00BF0004004880B582B000AF002336
:100940007B60FFF731FF7868FFF7CAFC78607B684F
:10095000072BF8D801A252F823F000BF7D09000848
:100960008B090008C3090008E1090008FF09000815
:1009700047090008470900081D0A0008374807F022
:100980002BF80020FFF7C6FD67E0354807F024F894
:10099000344A13886FF3C30313800020FFF78CFFE2
:1009A00000233B6009E04FF4DB70FFF79FFE32202D
:1009B00002F04CFA3B6801333B603B68002BF2DDF0
:1009C0004BE0294807F008F800233B6004E0FFF7FC
:1009D00051FD3B6801333B603B680F2BF7DD3CE08A
:1009E000224806F0F9FF00233B6004E0FFF75CFDBE
:1009F0003B6801333B603B680F2BF7DD2DE01C4863
:100A000006F0EAFF00233B6004E0FFF767FD3B6868
:100A100001333B603B68072BF7DD1EE0154806F00D
:100A2000DBFF104A13886FF3C30313800020FFF726
:100A300043FFDB20FFF79CFD00233B6006E04FF403
:100A4000DB70FFF723FE3B6801333B603B68042B00
:100A5000F5DDDB20FFF7BEFD00BF74E7A48A0008C8
:100A6000B48A00088C000020D88A0008E48A0008B4
:100A7000F08A0008FC8A000880B586B000AF002329
:100A80007B600023BB600D4BFB6001233B6103F0E7
:100A9000F7FA0346FB75FB7D002B01D0FB7D09E0D7
:100AA0003A1D07F108031146184603F0ADFB034653
:100AB000FB75FB7D18461837BD4680BD00F8000861
:100AC00080B500AF03F002FB0346184680BDB0B509
:100AD00084B000AF78600B467B807B6803F1806355
:100AE00003F5F8435B007B607B8800221C461546BB
:100AF00022462B467968012003F052FA0346FB7325
:100B0000FB7B18461037BD46B0BD80B485B000AF42
:100B100078600023FB817B6803F1806303F5F84371
:100B20005B007B607B681B88FB81FB891846143760
:100B3000BD465DF8047B704780B584B000AF786037
:100B40007B681A68884B1B689A4279D1874B1B884F
:100B50009BB201339AB2854B1A80854B1B88C3F335
:100B60004013DBB2002B16D0824B1B881BB2013B1B
:100B7000814A128812B2934207DD7E4B1B881BB25A
:100B80009BB2013B9BB21BB202E07B4B1B881BB2AA
:100B9000784A13801BE0764B1B88C3F30013DBB24B
:100BA000002B14D0734B1B881AB2744B1B881BB2DA
:100BB0009A4207DA6F4B1B881BB29BB201339BB280
:100BC0001BB202E06D4B1B881BB26A4A1380684B54
:100BD0001B88C3F38013DBB2002B12D0684B1B8839
:100BE0001BB2C3F53B6308335F4A1268D362644BA0
:100BF0001B881BB2C3F53B6308331A465A4BDA60B5
:100C0000FCE15C4B1B881BB21A465E4B33F812307A
:100C10001A465B4B1B881BB2D21A534B1B68DA6215
:100C2000544B1B881BB21A46564B33F812301A46E7
:100C3000534B1B881BB2D31A1A464B4BDA60DDE1CB
:100C40007B681A68504B1B689A4279D14F4B1B88BE
:100C50009BB201339AB24D4B1A80454B1B88C3F3AC
:100C60004013DBB2002B16D0494B1B881BB2013B53
:100C7000414A128812B2934207DD454B1B881BB2D2
:100C80009BB2013B9BB21BB202E03B4B1B881BB2E9
:100C90003F4A13801BE0364B1B88C3F30013DBB2C3
:100CA000002B14D03A4B1B881AB2344B1B881BB252
:100CB0009A4207DA364B1B881BB29BB201339BB2B8
:100CC0001BB202E02D4B1B881BB2314A1380284B0C
:100CD0001B88C3F38013DBB2002B12D02D4B1B8873
:100CE0001BB2C3F53B630833274A1268D362294B12
:100CF0001B881BB2C3F53B6308331A46224BDA60EC
:100D00007CE1234B1B881BB21A461E4B33F8123072
:100D10001A46204B1B881BB2D21A1B4B1B68DA6287
:100D20001B4B1B881BB21A46164B33F812301A465F
:100D3000184B1B881BB2D31A1A46134BDA605DE1BD
:100D40007B681A68144B1B689A4240F05781134B1A
:100D50001B78022B00F08E80022B00F34081002BC9
:100D60001ED0012B38D03AE1B804002096000020B4
:100D70008C0000208E0000209200002094000020B3
:100D80009A000020C48C0008040500209800002070
:100D9000900000209C0000206C0400209E00002099
:100DA000012208214FF0904003F05CFC0F2000F07E
:100DB0004DF901F039FC03461A46924B1A6001F0D6
:100DC00057FC03461A46904B1A60002208214FF048
:100DD000904003F047FC02E101224FF480614FF0A4
:100DE000904003F03FFC0F2000F030F901F028FCA8
:100DF00003461A46854B1A6001F02EFC03461A463C
:100E0000834B1A6000224FF480614FF0904003F052
:100E100029FC01F039FC03461A467E4B1A607D4BD3
:100E20001B6840F60332934210D87B4B1B8801337A
:100E30009AB2794B1A80784B1B88B3F57A7F0AD91E
:100E4000764A138843F08003138004E0734A1388C2
:100E50006FF3C7131380714B1B88C3F3C013DBB24E
:100E6000002B03D00120FFF729FAB8E00020FFF79C
:100E700025FAB4E0694B1B88C3F3C003DBB2002B37
:100E800000F0A5800023FB810023BB815E4B1B6823
:100E90009AB2634B1B88D31A9BB21AB2614B1A8069
:100EA000584B1B689AB2604B1B88D31A9BB21AB27C
:100EB0005E4B1A805B4BB3F90030642B2FDDB7F922
:100EC0000E3007EE903AB8EEE77A564BB3F90030A1
:100ED00007EE903AF8EEE77ADFED556A67EEA67A0C
:100EE00077EE277AFDEEE77A17EE903AFB81B7F9B5
:100EF0000C3007EE903AB8EEE77A4A4BB3F900307F
:100F000007EE903AF8EEE77ADFED4A6A67EEA67AE6
:100F100077EE277AFDEEE77A17EE903ABB81434BE6
:100F2000B3F90030642B2FDDB7F90E3007EE903A9D
:100F3000B8EEE77A3D4BB3F9003007EE903AF8EEA1
:100F4000E77ADFED3C6A67EEA67A77EE277AFDEE68
:100F5000E77A17EE903AFB81B7F90C3007EE903A3A
:100F6000B8EEE77A314BB3F9003007EE903AF8EE7D
:100F7000E77ADFED2F6A67EEA67A77EE277AFDEE45
:100F8000E77A17EE903ABB81B7F90E3013F5AF7FD1
:100F900008DDB7F90E30B3F5AF7FA8BF4FF4AF73DC
:100FA0001BB200E0244B254A1380B7F90C3013F52F
:100FB000AF7F08DDB7F90C30B3F5AF7FA8BF4FF4B2
:100FC000AF731BB200E01C4B1D4A138006E00021EA
:100FD0001B4B0A461A80194B0A461A8000BF194B50
:100FE0001B785A1C184B83FB0231D317C91A0B46C6
:100FF0005B000B44D11ACAB2124B1A7000BF1037F3
:10100000BD4680BDA0000020AC000020A400002050
:10101000A8000020B0000020BC0000208C000020B0
:10102000B4000020B8000020B6000020BA00002064
:101030009A9999BE9A99993EA2FEFFFF9A000020C4
:101040009C0000209E0000205655555580B485B068
:1010500000AF7860094B1B685B6A7A681344FB60D9
:1010600000BF064B1B685B6AFA689A42F9D800BF5A
:1010700000BF1437BD465DF8047B70476C04002048
:1010800090B585B002AF01F07BFE00F06DF900F085
:1010900017FC00F0C3F900F04FFA00F0BBFA00F0C3
:1010A000EFFA00F065FB00F0DBFB924B1B689B68DE
:1010B0000021184606F098FC01F048FAFFF746FBBD
:1010C00000F096FC8C4806F087FC00237B60786873
:1010D000FFF706F978607B68072BF8D801A252F871
:1010E00023F000BF0511000811110008911100083C
:1010F0001112000819120008211200082912000814
:10110000351200087D4806F067FC01F0C9FAF0E0EE
:101110007B4806F061FCFFF747FB7A4A13886FF3C0
:1011200041031380784B02221A70784B04221A7004
:10113000FFF7A0F9322001F089FE0020FFF7EAF95D
:10114000322001F083FEFFF7AFF9322001F07EFE7E
:101150000020FFF7DFF9322001F078FE01F0A0FA5D
:1011600000F066FC4FF4FA7001F070FE674B00224D
:101170001A70664B1A78644B1A7000F059FC624B77
:1011800002221A70614B04221A70FFF71FFBB0E0B5
:101190005F4806F021FCFFF707FB5A4A138843F02B
:1011A00002031380584B02221A70584B04221A7003
:1011B000FFF760F9322001F049FE0020FFF7AAF99D
:1011C000322001F043FEFFF76FF9322001F03EFEBE
:1011D0000020FFF79FF9322001F038FE01F060FA9D
:1011E00000F026FC4FF4FA7001F030FE474B00226D
:1011F0001A70464B1A78444B1A7000F019FC424B97
:1012000002221A70414B04221A70FFF7DFFA70E0D5
:10121000404806F0E1FB6CE03F4806F0DDFB68E08B
:101220003E4806F0D9FB64E03D4806F0D5FBFFF7E9
:1012300083FB5EE03B4806F0CFFB01F04FFA3A4BF0
:101240001B7803F04403D8B2374B1B7823F07703A5
:10125000D9B2354B1B7803F01103DBB21A46FFF706
:1012600007F8324B1968324B1868324B1C68324B06
:101270001B68324A126801920093234602463048A6
:1012800006F024FB2F4BB3F9003019462E4BB3F96F
:1012900000301A462D4806F019FB234B1B7803F04B
:1012A0001103002B03D02A4806F010FB02E0294866
:1012B00006F00CFB1C4B1B7803F08803002B03D0BB
:1012C000254806F003FB02E0244806F0FFFA164B1F
:1012D0001B7803F04403002B03D0214806F07CFB6D
:1012E00002E0204806F078FB40F24D1001F0AEFD20
:1012F000A3E7ECE60C0000201C8B0008408B0008E4
:10130000588B00088C000020C5020020C602002077
:101310006C8B0008808B00088C8B0008988B000871
:10132000A48B0008B88B0008C4020020AC00002089
:10133000A8000020A4000020A0000020B000002091
:10134000C88B0008B8000020BA0000200C8C0008F0
:10135000288C0008388C0008488C0008588C00083D
:10136000688C0008748C000880B596B000AF07F157
:10137000300328220021184606F0A0FA07F11C03CA
:1013800000221A605A609A60DA601A613B1D0022DE
:101390001A605A609A60DA601A615A6102233B63EC
:1013A00001233B6410237B640223FB6400233B6521
:1013B0004FF460137B6507F13003184603F06AF9B8
:1013C0000346002B01D000F00BFB0F23FB6102232F
:1013D0003B6200237B624FF48063BB620023FB62AD
:1013E00007F11C030221184604F092F90346002B72
:1013F00001D000F0F5FA80237B604FF480737B61AD
:101400003B1D184604F0BAFB0346002B01D000F048
:10141000E7FA00BF5837BD4680BD000080B58AB0EE
:1014200000AF07F11C0300221A605A609A603B1D4E
:1014300000221A605A609A60DA601A615A613D4B64
:101440004FF0A0421A603B4B00225A60394B0022F9
:101450009A60384B01221A61364B00225A76354B7E
:10146000012283F82020334B01225A62314B0022A3
:10147000DA62304B01229A622E4B0022DA602D4B49
:101480000322DA612B4B002283F83020294B0422FF
:101490005A61284B00221A76264B00225A632548AF
:1014A00001F0F8FC0346002B01D000F099FA00236C
:1014B000FB6107F11C0319461E4802F0CFFA0346F0
:1014C000002B01D000F08CFA01237B600123BB606C
:1014D00000233B610023FB6000237B610023BB6191
:1014E0003B1D1946134801F0F9FF0346002B01D0BC
:1014F00000F076FA02237B600223BB603B1D194695
:101500000C4801F0EBFF0346002B01D000F068FA15
:101510000C237B600323BB603B1D1946054801F08B
:10152000DDFF0346002B01D000F05AFA00BF283738
:10153000BD4680BDCC03002080B586B000AF3B46E1
:1015400000221A605A609A60DA601A615A612F4B61
:101550002F4A1A602D4B00225A602C4B00229A60B1
:101560002A4B01221A61294B00225A76274B01226D
:1015700083F82020254B01225A62244B0022DA6294
:10158000224B01229A62214B0022DA601F4B022279
:10159000DA611E4B002283F830201C4B04225A6172
:1015A0001A4B00221A76194B00225A63174801F091
:1015B00071FC0346002B01D000F012FA01233B60BE
:1015C00001237B600023FB600023BB6000233B61A1
:1015D00000237B613B4619460C4801F07FFF034620
:1015E000002B01D000F0FCF904233B6002237B6058
:1015F0003B461946054801F071FF0346002B01D018
:1016000000F0EEF900BF1837BD4680BD1C04002075
:101610000001005080B584B000AF3B1D00221A606D
:101620005A609A60144B154A1A60134B3F225A6055
:10163000114B00229A60104B4FF47A62DA600E4B25
:1016400000229A610C4804F0BFFB0346002B01D036
:1016500000F0C6F900237B600023FB603B1D1946A8
:10166000054805F0D9FB0346002B01D000F0B8F97E
:1016700000BF1037BD4680BD6C0400200010004044
:1016800080B592B000AF07F12C0300221A605A60B7
:101690009A60DA601A615A619A613B462C220021F5
:1016A000184606F00BF9304B304A1A602E4B3F2299
:1016B0005A602D4B00229A602B4B0022DA602A4B95
:1016C00000221A61284B00225A61274B00229A619E
:1016D000254804F079FB0346002B01D000F080F987
:1016E000214804F01DFC0346002B01D000F078F9DE
:1016F0006023FB6219233B6300237B630023BB63EE
:101700000023FB6300233B6400237B6407F12C036D
:1017100000221946144804F0FFFE0346002B01D0B6
:1017200000F05EF900233B6000237B600023BB6078
:101730000023FB6000233B614FF400537B610023D7
:10174000BB610023BB623B461946074805F0D2FB4C
:101750000346002B01D000F043F9034801F016F9CD
:1017600000BF4837BD4680BDB8040020004401409A
:1017700080B592B000AF07F12C0300221A605A60C6
:101780009A60DA601A615A619A613B462C22002104
:10179000184606F093F8304B304A1A602E4B3F2221
:1017A0005A602D4B00229A602B4B0022DA602A4BA4
:1017B00000221A61284B00225A61274B00229A61AD
:1017C000254804F001FB0346002B01D000F008F986
:1017D000214804F0A5FB0346002B01D000F000F9DE
:1017E0006023FB6219233B6300237B630023BB63FD
:1017F0000023FB6300233B6400237B6407F12C037D
:1018000000221946144804F087FE0346002B01D03D
:1018100000F0E6F800233B6000237B600023BB6000
:101820000023FB6000233B614FF400537B610023E6
:10183000BB610023BB623B461946074805F05AFBD3
:101840000346002B01D000F0CBF8034801F09EF8CE
:1018500000BF4837BD4680BD040500200048014058
:1018600080B500AF144B154A1A60134B4FF4E132A8
:101870005A60114B00229A600F4B0022DA600E4B27
:1018800000221A610C4B0C225A610B4B00229A6108
:10189000094B0022DA61084B00221A62064B002233
:1018A0005A62054805F0BCFB0346002B01D000F04E
:1018B00097F800BF80BD00BF5005002000440040E5
:1018C00080B588B000AF07F10C0300221A605A609F
:1018D0009A60DA601A613F4B5B693E4A43F48003C9
:1018E00053613C4B5B6903F48003BB60BB68394BBD
:1018F0005B69384A43F400335361364B5B6903F448
:1019000000337B607B68334B5B69324A43F480234E
:101910005361304B5B6903F480233B603B680022DA
:1019200001212D4802F09EFE002241F268614FF035
:10193000904002F097FE0022C921284802F092FE52
:101940000123FB6001233B6100237B610023BB611A
:1019500007F10C031946204802F0FAFC0223FB6051
:1019600000233B6101237B6107F10C0319461A48F0
:1019700002F0EEFC41F26863FB6001233B6100234F
:101980007B610023BB6107F10C0319464FF09040C7
:1019900002F0DEFCC923FB6001233B6100237B6175
:1019A0000023BB6107F10C0319460C4802F0D0FC80
:1019B0004FF41063FB6000233B6101237B6107F15F
:1019C0000C0319464FF0904002F0C2FC00BF2037D4
:1019D000BD4680BD001002400014004800040048CD
:1019E00080B400AF00BFBD465DF8047B70470000C7
:1019F00080B500AF0A4B00221A800A4B02221A70EF
:101A0000094B04221A7000F06DF9084B00221A707D
:101A1000064B00225A70054B00229A7000BF80BD11
:101A20008C000020C5020020C6020020C00000205B
:101A300090B583B002AF724B1B88C3F34003DBB297
:101A4000002B01D000F054FD00F048FE6D4B1B78D8
:101A500003F07703DAB26B4B1A7000F0B1F9FEF7BE
:101A6000D7FC00F0E7F800F0ABF9674B00221A70E2
:101A700000F0E6FA00F0DEFB634B1B785A1CD1B293
:101A8000614A11701A46614B9B5C882B0AD0882BE7
:101A900078DC442B09D0442B74DC112B68D0222B2A
:101AA0000DD06FE0FEF7D2FC6CE0FEF7C1FCFEF754
:101AB000E1FC012000F0ACFAFEF7AAFC62E0FEF7C0
:101AC000B7FC534B1B6840F63302934221D9514B6C
:101AD0001B68B3F5E16F1CD34F4B1B6840F62132F6
:101AE000934216D9FEF7E0FC322001F0AFF9002056
:101AF000FEF710FD322001F0A9F9FEF7D5FC3220E7
:101B000001F0A4F90020FEF705FD322001F09EF956
:101B100028E03F4B1B6840F63302934220D93D4BEF
:101B20001B68B3F5E16F1BD33C4B1B68B3F5AF6F7C
:101B300016D3FEF79FFC322001F088F90020FEF753
:101B4000E9FC322001F082F9FEF794FC322001F02A
:101B50007DF90020FEF7DEFC322001F077F901E08C
:101B6000FEF7BCFC022000F053FAFEF751FC09E03E
:101B7000FEF75EFCFEF798FCFF2000F049FAFEF746
:101B800047FC00BF00F056F800F08EF8234B1968B0
:101B9000204B18681E4B1C681F4B1B68204A12689C
:101BA00001920093234602461E4805F08FFE1E4B0D
:101BB0001B78DAB21D4B1B789A427FF45DAF1A4B4B
:101BC0005B78DAB21A4B1B789A427FF455AFFEF776
:101BD0002FFC40F6980001F039F9FEF77FFC022057
:101BE00000F016FA064B1B88C3F34003DBB2002B50
:101BF00001D100F04DFC00BF0437BD4690BD00BFD1
:101C00008C000020C4020020C8030020C80200206D
:101C1000A4000020A8000020A0000020AC000020AC
:101C2000B0000020808C0008C0000020C502002009
:101C3000C602002080B400AF1A4B9B78DBB2032BA6
:101C40002AD801A252F823F0591C0008691C000888
:101C5000791C0008891C0008124B5B78DBB2013349
:101C6000DAB2104B5A7017E00E4B1B78DBB201331F
:101C7000DAB20C4B1A700FE00A4B5B78DBB2013B17
:101C8000DAB2084B5A7007E0064B1B78DBB2013B17
:101C9000DAB2044B1A7000BF00BFBD465DF8047B8A
:101CA000704700BFC000002080B500AF00F088F88A
:101CB000094B1B781A46094B9A5C094B1B78134059
:101CC000DBB2002B06D000F0BBF900F0B3FA024BF8
:101CD00000221A7000BF80BDC8030020C802002087
:101CE000C402002080B483B000AF0023BB7113E0B6
:101CF0000023FB710AE0BA79FB79304912010A44EA
:101D00001344F0221A70FB790133FB71FB790F2B1E
:101D1000F1D9BB790133BB71BB790F2BE8D9002313
:101D2000BB7120E0BB79254A1B0113441A78BB79AB
:101D300062F00E02D1B2214A1B0113440A461A7006
:101D4000BB791E4A1B0113440F331A78BB7962F02A
:101D50000B02D1B2194A1B0113440F330A461A7001
:101D6000BB790133BB71BB790F2BDBD90023FB712E
:101D700019E0FB79114AD25CFB7962F00D02D1B215
:101D80000E4AD154FB790D4A134493F8F020FB79A5
:101D900062F00702D1B2094A13440A4683F8F020E0
:101DA000FB790133FB71FB790F2BE2D900BF00BF38
:101DB0000C37BD465DF8047B704700BFC4000020AF
:101DC00090B482B000AF8F4B1B781A468E4B9B7835
:101DD000DBB242FA03F3DBB203F00F03FB71FB79D2
:101DE0001B015AB297F9073013435BB2FB71864B64
:101DF0005B78DBB21846844B1B78DBB21946834A0A
:101E0000030113440B44FA791A707F4B5B78DBB201
:101E10000F2B39D0FB7903F08803002B1AD07A4BB3
:101E20005B78D8B203460133774A1278D1B20C46B8
:101E3000764A1B01134423441A78034601330846AB
:101E400042F02202D1B2714A1B01134403440A46F4
:101E50001A7019E06C4B5B78D8B2034601336A4ABA
:101E60001278D1B20C46694A1B01134423441A78F4
:101E700003460133084622F02202D1B2634A1B0115
:101E8000134403440A461A705F4B1B78DBB20F2BD6
:101E900037D0FB7903F04403002B19D05A4B5B7801
:101EA000DCB22246584B1B78D8B20346013357495F
:101EB00012010A4413441A780346013342F0110216
:101EC000D0B2524922010A44134402461A7018E063
:101ED0004D4B5B78DCB222464B4B1B78D8B20346A5
:101EE00001334A4912010A4413441A780346013364
:101EF00022F01102D0B2454922010A44134402469D
:101F00001A70414B5B78DBB2002B39D0FB7903F0C0
:101F10002203002B1AD03C4B5B78D8B20346013B1E
:101F2000394A1278D1B20C46384A1B011344234473
:101F30001A780346013B084662F07702D1B2334A71
:101F40001B01134403440A461A7019E02E4B5B78B8
:101F5000D8B20346013B2C4A1278D1B20C462B4A28
:101F60001B01134423441A780346013B084602F040
:101F70007702D1B2254A1B01134403440A461A7062
:101F8000214B1B78DBB2002B37D0FB7903F0110318
:101F9000002B19D01C4B5B78DCB222461A4B1B7805
:101FA000D8B20346013B194912010A4413441A7876
:101FB0000346013B42F04402D0B2144922010A44D4
:101FC000134402461A7018E00F4B5B78DCB22246CD
:101FD0000D4B1B78D8B20346013B0C4912010A4451
:101FE00013441A780346013B22F04402D0B2074959
:101FF00022010A44134402461A7000BF0837BD4646
:1020000090BC7047C4020020C0000020C400002023
:1020100080B483B000AF0346FB71084B9B78DAB203
:10202000FB791344DBB203F00303DAB2034B9A707B
:1020300000BF0C37BD465DF8047B7047C000002030
:1020400080B483B000AF0023BB7113E00023FB71A9
:102050000AE0BA79FB79714912010A441344FF225C
:102060001A70FB790133FB71FB790F2BF1D9BB7926
:102070000133BB71BB790F2BE8D900237B71684B0F
:102080001B781846674B1B781946644A03011344B2
:102090000B4400221A700023BB71A1E00023FB71E6
:1020A00097E0BA79FB795D4912010A4413441B7821
:1020B0007A799A4240F08A80BA79FB795A491201BA
:1020C0000A4413441B783B71584B1B88C3F34003ED
:1020D000DBB2002B02D03B791B093B713B7903F04B
:1020E0000803002B18D1BB790F2B15D0BB795A1CD4
:1020F000FB794A4912010A4413441B78FF2B0BD188
:10210000BB795A1CFB7979790131C8B24349120174
:102110000A44134402461A703B7903F00403002B6F
:1021200018D1FB790F2B15D0BA79FB7901333B49D4
:1021300012010A4413441B78FF2B0BD1BA79FB79A7
:10214000013379790131C8B2344912010A44134488
:1021500002461A703B7903F00203002B18D1BB79B9
:10216000002B15D0BB795A1EFB792C4912010A4469
:1021700013441B78FF2B0BD1BB795A1EFB7979795D
:102180000131C8B2254912010A44134402461A70AB
:102190003B7903F00103002B18D1FB79002B15D0FC
:1021A000BA79FB79013B1D4912010A4413441B789B
:1021B000FF2B0BD1BA79FB79013B79790131C8B298
:1021C000164912010A44134402461A70FB7901337E
:1021D000FB71FB790F2B7FF664AFBB790133BB71C9
:1021E000BB790F2B7FF65AAF7B7901337B71104B94
:1021F0005B78DBB218460E4B1B78DBB21946074AF8
:10220000030113440B441B78FF2B3FF444AF00BF82
:1022100000BF0C37BD465DF8047B7047C401002049
:10222000C6020020C5020020C40000208C0000204F
:10223000C000002080B582B000AF904B9B787B70CF
:102240000023BB8006E0BB888D4AFF21D154BB88A8
:102250000133BB80BB88FF2BF5D9884B5B78DBB2A1
:102260001846864B1B78DBB21946864A0301134495
:102270000B441B78FB70814B1B78FB717F4B5B78A9
:10228000BB710023BB80BA79FB797F4912010A44F4
:1022900013441B78BB707D4B1B88C3F34003DBB238
:1022A000002B02D0BB781B09BB70BB7803F008037E
:1022B000002B22D1BB795A1CFB79724912010A44C6
:1022C00013441B78FA789A4217D96C4B9B78DBB28F
:1022D0005B42DAB2BB8802F00302D1B2684AD15441
:1022E000BB795A1CFB79674912010A4413441B78D5
:1022F000FB70BB790133BB7179E0BB7803F0040359
:10230000002B23D1BA79FB7901335E4912010A44CB
:1023100013441B78FA789A4218D9584B9B78DBB251
:10232000C3F10103DAB2BB8802F00302D1B2544A0E
:10233000D154BA79FB790133524912010A4413444A
:102340001B78FB70FB790133FB7150E0BB7803F025
:102350000203002B23D1BB795A1EFB794949120194
:102360000A4413441B78FA789A4218D9434B9B7855
:10237000DBB2C3F10203DAB2BB8802F00302D1B2CE
:102380003F4AD154BB795A1EFB793E4912010A4497
:1023900013441B78FB70BB79013BBB7127E0BB7812
:1023A00003F00103002B22D1BA79FB79013B3549B7
:1023B00012010A4413441B78FA789A4217D92F4B1A
:1023C0009B78DBB2C3F10303DAB2BB8802F00302ED
:1023D000D1B22B4AD154BA79FB79013B2949120178
:1023E0000A4413441B78FB70FB79013BFB71BB88EB
:1023F000234AD35C032B28D801A252F823F000BF54
:10240000112400081B2400082B2400083B2400088A
:10241000BB881B4A8821D1541CE00120FFF7F8FD3E
:10242000BB88174A4421D15414E00220FFF7F0FD85
:10243000BB88134A2221D1540CE0FF20FFF7E8FDAE
:10244000BB880F4A1121D15404E0BB880C4A0021FB
:10245000D15400BFBB880133BB80BA79FB790949ED
:1024600012010A4413441B78002B7FF40CAF034A7B
:102470007B78937000BF0837BD4680BDC000002048
:10248000C8020020C4010020C40000208C000020ED
:1024900080B582B000AFFEF7EFFA00237B601BE04F
:1024A00000233B6012E07B681A013B681344184626
:1024B0000E4A7B681B011A443B6813441B789BB28D
:1024C0001946FEF704FB3B6801333B603B680F2B6A
:1024D000E9DD7B6801337B607B680F2BE0DDFEF775
:1024E000EFFA00BF0837BD4680BD00BFC400002022
:1024F00080B582B000AF00237B601CE000233B600E
:1025000013E07B681A013B6813441846FEF7FDFA96
:102510000346D9B20C4A7B681B011A443B6813443A
:102520000A461A703B6801333B603B680F2BE8DDBD
:102530007B6801337B607B680F2BDFDD00BF00BF52
:102540000837BD4680BD00BFC400002080B500AF85
:10255000154B00221A70154B00221A60134B1B6892
:10256000134A1360124B1B68124A1360114B1B680D
:10257000114A1360114B00221A80104B1A88104B1D
:102580001A80104B1B686FF001021A610D4B1B681B
:10259000DA680C4B1B6842F00102DA60094803F06C
:1025A0006BFC00BF80BD00BF9E000020A800002083
:1025B000A4000020A0000020AC000020B6000020F5
:1025C000B40000206C04002080B588B000AF7860B3
:1025D000396007F1080300221A605A609A60DA60D5
:1025E0001A615A613B68BB600123FB6000237B6179
:1025F00004233B610023BB610023FB6107F1080357
:102600001946786800F06AFF786800F0D5FD64210B
:10261000786800F087FE786800F052FF034618469D
:102620002037BD4680BD000080B500AF01210348C2
:10263000FFF7CAFF0346184680BD00BF1C040020F8
:1026400080B500AF02210348FFF7BEFF03461846DE
:1026500080BD00BFCC03002080B500AF042103483B
:10266000FFF7B2FF0346184680BD00BF1C040020E0
:1026700080B500AF01210348FFF7A6FF03461846C7
:1026800080BD00BFCC03002080B500AF0C21034803
:10269000FFF79AFF0346184680BD00BFCC03002019
:1026A00080B483B000AF0123FB71084B1B689AB262
:1026B000074B1A80074B1B689AB2074B1A80FB79AD
:1026C00018460C37BD465DF8047B7047AC0000200F
:1026D000B4000020A0000020B600002080B400AFAD
:1026E000184B00221A70184B1B68B3F5AF6F04D853
:1026F000164B1B68B3F5966F06D9124B1B7863F027
:102700007703DAB20F4B1A70114B1B6840F26C72F0
:10271000934206D90B4B1B7843F04403DAB2094BC2
:102720001A700C4B1B68B3F5AF6F06D9054B1B78BD
:1027300043F01103DAB2034B1A7000BFBD465DF8D7
:10274000047B7047C4020020A4000020A8000020E1
:10275000A0000020AC00002080B483B000AF0F4B7D
:102760009B690E4A43F0010393610C4B9B6903F094
:1027700001037B607B68094BDB69084A43F08053A7
:10278000D361064BDB6903F080533B603B6800BFBD
:102790000C37BD465DF8047B704700BF0010024057
:1027A00080B58CB000AF786007F11C0300221A607E
:1027B0005A609A60DA601A617B681B68B3F1A04FB7
:1027C00046D13F4B1B6801333D4A13603C4B1B68AD
:1027D000012B0BD13B4B5B693A4A43F08053536169
:1027E000384B5B6903F08053BB61BB69354B5B6958
:1027F000344A43F400335361324B5B6903F40033D2
:102800007B617B692F4B5B692E4A43F480235361C4
:102810002C4B5B6903F480233B613B690323FB6121
:1028200003233B6200237B6207F11C0319464FF030
:10283000904001F08DFD0223FB6103233B620023E6
:102840007B6207F11C0319461F4801F081FD32E04D
:102850007B681B681D4A93422DD1194B1B680133BD
:10286000174A1360164B1B68012B0BD1154B5B6984
:10287000144A43F080535361124B5B6903F0805359
:10288000FB60FB680F4B5B690E4A43F400335361F6
:102890000C4B5B6903F40033BB60BB689023FB61A6
:1028A00003233B6200237B6207F11C0319464FF0B0
:1028B000904001F04DFD00BF3037BD4680BD00BFE8
:1028C000D80500200010024000040048000100501C
:1028D00080B586B000AF78607B681B68274A93425A
:1028E00014D1274BDB69264A43F01003D361244BF4
:1028F000DB6903F010037B617B6900220021362035
:1029000001F017FB362001F030FB32E07B681B68DA
:102910001C4A934214D11A4B9B69194A43F4003361
:102920009361174B9B6903F400333B613B690022C1
:102930000021192001F0FDFA192001F016FB18E022
:102940007B681B68104A934213D10D4B9B690C4A5C
:1029500043F4802393610A4B9B6903F48023FB605B
:10296000FB68002200211A2001F0E3FA1A2001F08E
:10297000FCFA00BF1837BD4680BD00BF0010004004
:1029800000100240004401400048014080B58AB078
:1029900000AF786007F1140300221A605A609A6051
:1029A000DA601A617B681B68224A93421CD1224B71
:1029B0005B69214A43F4802353611F4B5B6903F435
:1029C00080233B613B6910237B610223BB610023B1
:1029D000FB6100233B6201237B6207F1140319466C
:1029E000164801F0B5FC20E07B681B68144A93424E
:1029F0001BD1114B5B69104A43F4802353610E4B8A
:102A00005B6903F48023FB60FB6820237B61022366
:102A1000BB610023FB6100233B620A237B6207F159
:102A200014031946054801F093FC00BF2837BD4642
:102A300080BD00BF00440140001002400004004877
:102A40000048014080B58AB000AF786007F11403F8
:102A500000221A605A609A60DA601A617B681B680B
:102A6000184A934229D1184BDB69174A43F40033C3
:102A7000D361154BDB6903F400333B613B69124BB7
:102A80005B69114A43F4003353610F4B5B6903F4F4
:102A90000033FB60FB6848F204037B610223BB61E7
:102AA0000023FB6103233B6207237B6207F11403CE
:102AB00019464FF0904001F04BFC00BF2837BD464F
:102AC00080BD00BF004400400010024080B400AF51
:102AD00000BFBD465DF8047B704780B400AFFEE7E1
:102AE00080B400AFFEE780B400AFFEE780B400AF73
:102AF000FEE780B400AF00BFBD465DF8047B7047C1
:102B000080B400AF00BFBD465DF8047B704780B461
:102B100000AF00BFBD465DF8047B704780B500AFD5
:102B200000F074F900BF80BD80B500AF024803F02B
:102B3000D3FB00BF80BD00BFB804002080B500AF4C
:102B4000024803F0C9FB00BF80BD00BF04050020A0
:102B500080B500AF024803F0BFFB00BF80BD00BFDF
:102B60006C04002080B586B000AFF860B9607A6070
:102B700000237B610AE0AFF300800146BB685A1C6A
:102B8000BA60CAB21A707B6901337B617A697B686B
:102B90009A42F0DB7B6818461837BD4680BD80B589
:102BA00086B000AFF860B9607A6000237B6109E00D
:102BB000BB685A1CBA601B781846FDF70BFC7B6992
:102BC00001337B617A697B689A42F1DB7B68184646
:102BD0001837BD4680BD80B483B000AF78604FF039
:102BE000FF3318460C37BD465DF8047B704780B450
:102BF00083B000AF786039603B684FF400525A6090
:102C0000002318460C37BD465DF8047B704780B43E
:102C100083B000AF7860012318460C37BD465DF8DD
:102C2000047B704780B485B000AFF860B9607A600B
:102C3000002318461437BD465DF8047B704700003A
:102C400080B584B000AF7860114B1B68002B02D1B7
:102C50000F4B104A1A600E4B1B68FB600C4B1A6836
:102C60007B6813446A46934207D904F0FDFD03468E
:102C70000C221A604FF0FF3306E0054B1A687B68A0
:102C80001344034A1360FB6818461037BD4680BDE5
:102C9000DC0500201806002080B400AF1F4BD3F8DD
:102CA00088301E4A43F47003C2F888301C4B1B68FE
:102CB0001B4A43F001031360194B5A681849194B1A
:102CC00013404B60164B1B68154A23F0847323F4A2
:102CD00080331360124B1B68114A23F48023136066
:102CE0000F4B5B680E4A23F4FE0353600C4BDB6A08
:102CF0000B4A23F00F03D362094B1A6B08490A4BA6
:102D000013400B63064B00229A60044B4FF00062A5
:102D10009A6000BFBD465DF8047B704700ED00E09F
:102D2000001002400CC07FF8CCFC00FFDFF834D06C
:102D30000D480E490E4A002302E0D458C450043313
:102D4000C4188C42F9D30B4A0B4C002301E01360EA
:102D50000432A242FBD3FFF79FFF04F08BFDFEF786
:102D60008FF9FEE7003000200000002070000020F6
:102D7000F88F00087000002018060020FEE7000011
:102D800080B500AF084B1B68074A43F0100313607F
:102D9000032001F0C3F8002000F008F8FFF7DCFC86
:102DA0000023184680BD00BF0020024080B582B0DD
:102DB00000AF7860124B1A68124B1B7819464FF41B
:102DC0007A73B3FBF1F3B2FBF3F3184601F0DBF8CF
:102DD0000346002B01D001230EE07B680F2B0AD89D
:102DE000002279684FF0FF3001F0A3F8064A7B68B3
:102DF0001360002300E0012318460837BD4680BD5C
:102E000000000020080000200400002080B400AF73
:102E1000064B1B781A46064B1B681344044A136082
:102E200000BFBD465DF8047B704700BF080000206E
:102E3000E005002080B400AF034B1B681846BD4678
:102E40005DF8047B704700BFE005002080B584B0CA
:102E500000AF7860FFF7EEFFB8607B68FB60FB684F
:102E6000B3F1FF3F05D00A4B1B781A46FB681344A9
:102E7000FB6000BFFFF7DEFF0246BB68D31AFA68AB
:102E80009A42F7D800BF00BF1037BD4680BD00BFD3
:102E90000800002080B59AB000AF7860002387F862
:102EA000673000233B660023BB607B68002B01D1A9
:102EB000012372E17B681B69002B7B681B6C03F0AC
:102EC0001003002B76D17B681B6C002B52D17B68E2
:102ED00000225A647B680022DA647B6800229A64CC
:102EE0007B68002283F83C207868FFF759FC7B68F8
:102EF0001B689B6803F08053002B3BD1786800F07F
:102F0000D7FE034687F867307B681B6C03F010031D
:102F1000002B2FD197F86730002B2BD17B681B6CCF
:102F200023F4885323F0020343F002027B681A64FF
:102F30007B681B689A687B681B6822F040529A6025
:102F40007B681B689A687B681B6842F080529A60B5
:102F5000944B1B68944AA2FB03239A0C13469B00D4
:102F600013445B00BB6002E0BB68013BBB60BB6815
:102F7000002BF9D17B681B689B6803F08053002B02
:102F800007D07B681B689B6803F00053B3F1005FB8
:102F900010D17B681B6C23F0120343F010027B6896
:102FA0001A647B685B6C43F001027B685A640123FE
:102FB00087F867307B681B6C03F01003002B40F030
:102FC000DF8097F86730002B40F0DA807B681B6861
:102FD0009B6803F00403002B40F0D2807B681B6CDD
:102FE00023F4817343F002027B681A646F4BFB6524
:102FF0007B681B68B3F1A04F02D16D4BFB6002E010
:103000004FF0A043FB607B681B689B6803F00303E1
:10301000012B08D17B681B681B6803F00103012B9F
:1030200001D1012300E00023002B1CD1FB68002B01
:1030300010D0FB689B6803F00303012B07D1FB68EA
:103040001B6803F00103012B01D1012300E00023E1
:10305000002B08D1FB6D9B6823F440327B685B68D2
:103060001A43FB6D9A607B685B7E5B037A68526BE8
:10307000012A02D04FF4805200E000221A437B68FC
:10308000DB681A437B689B6813433A6E13433B66C5
:103090007B6893F82030012B1BD17B685B7E002B73
:1030A00009D17B685B6A013B5A043B6E134343F4CE
:1030B00080333B660DE07B681B6C23F0220343F0FA
:1030C00020027B681A647B685B6C43F001027B68BA
:1030D0005A647B689B6A012B07D07B689A6A7B687D
:1030E000DB6A13433A6E13433B667B681B689B683D
:1030F00003F00C03002B14D17B681B68DB687A6833
:10310000126823F4804323F00203D3607B681B7EA4
:103110009A037B6893F830305B0013433A6E134395
:103120003B667B681B68DA68224B13407A6812683A
:10313000396E0B43D3607B681B69012B0CD17B6814
:103140001B681B6B23F00F017B68DB695A1E7B68D1
:103150001B680A431A6307E07B681B681A6B7B686D
:103160001B6822F00F021A637B6800225A647B6896
:103170001B6C23F0030343F001027B681A640AE02E
:103180007B681B6C23F0120343F010027B681A6407
:10319000012387F8673097F8673018466837BD46CF
:1031A00080BD00BF0000002083DE1B4300030050F1
:1031B0000001005007C0F0FF80B584B000AF786018
:1031C0000023FB737B681B689B6803F00403002BE0
:1031D00040F09C807B6893F83C30012B01D10223A6
:1031E00097E07B68012283F83C20786800F0FCFCC3
:1031F0000346FB73FB7B002B40F083807B681B6CDA
:1032000023F4706323F0010343F480727B681A6433
:10321000424B9B6803F01F03002B04D07B681B68A4
:10322000B3F1A04F15D17B681B6C23F480127B682F
:103230001A647B681B68DB6803F00073002B27D0DF
:103240007B681B6C23F4405343F480527B681A6400
:103250001EE07B681B6C43F480127B681A647B68F9
:103260001B68B3F1A04F04D07B681B682C4A9342C3
:103270000ED14FF0A043DB6803F00073002B07D0A2
:103280007B681B6C23F4405343F480527B681A64C0
:103290007B681B6C03F48053B3F5805F06D17B68B9
:1032A0005B6C23F006027B685A6402E07B680022B4
:1032B0005A647B68002283F83C207B681B681C22D0
:1032C0001A60164B9B6803F01F03002B10D0134BA2
:1032D0009B6803F01F03052B0AD0104B9B6803F07B
:1032E0001F03092B04D07B681B68B3F1A04F0FD1DB
:1032F0007B681B689A687B681B6842F004029A60CE
:1033000006E07B68002283F83C2001E00223FB7387
:10331000FB7B18461037BD4680BD00BF0003005040
:103320000001005080B586B000AF7860396000239E
:103330003B617B685B69082B02D108237B612EE02F
:103340005E4BFB60FB689B6803F01F03002B12D1F0
:103350007B681B68DB6803F00103012B1DD17B68D0
:103360001B6C43F020027B681A647B68002283F8A0
:103370003C2001239DE0FB689B6803F44043002B45
:103380000BD07B681B6C43F020027B681A647B685F
:10339000002283F83C2001238BE00C237B61474B08
:1033A0009B6803F01F03002B04D07B681B68B3F1FC
:1033B000A04F04D17B681B68DB683B6103E04FF0E2
:1033C000A043DB683B61FFF735FDB86021E03B6857
:1033D000B3F1FF3F1DD03B68002B07D0FFF72AFD5C
:1033E0000246BB68D31A3A689A4212D27B681B68BD
:1033F0001A687B691340002B0BD17B681B6C43F070
:1034000004027B681A647B68002283F83C20032353
:103410004FE07B681B681A687B691340002BD6D08D
:103420007B681B6C43F400727B681A647B681B68C2
:10343000DB6803F44063002B31D13B6903F4005394
:10344000002B2CD17B681B681B6803F00803082B3A
:1034500025D17B681B689B6803F00403002B12D105
:103460007B681B6C23F480727B681A647B681B6C1E
:1034700003F48053002B12D17B681B6C43F00102D4
:103480007B681A640BE07B681B6C43F020027B684E
:103490001A647B685B6C43F001027B685A643B6989
:1034A00003F48043002B03D17B681B687A691A60A0
:1034B000002318461837BD4680BD00BF00030050EA
:1034C00080B483B000AF78607B681B681B6C1846C3
:1034D0000C37BD465DF8047B7047000080B49BB09C
:1034E00000AF78603960002387F867300023BB6045
:1034F0007B6893F83C30012B01D10223A4E27B6866
:10350000012283F83C207B681B689B6803F004035E
:10351000002B40F088823B685B68042B1CD87B68DA
:103520001B68196B3B685A6813465B0013445B00C9
:103530001A461F239340DB4319403B6818683B68D9
:103540005A6813465B0013445B0000FA03F27B6881
:103550001B680A431A6363E03B685B68092B1ED84B
:103560007B681B68596B3B685A6813465B001344C1
:103570005B001E3B1F2202FA03F3DB4319403B684A
:1035800018683B685A6813465B0013445B001E3B97
:1035900000FA03F27B681B680A435A6340E03B6809
:1035A0005B680E2B1ED87B681B68996B3B685A685A
:1035B00013465B0013445B003C3B1F2202FA03F3FB
:1035C000DB4319403B6818683B685A6813465B0048
:1035D00013445B003C3B00FA03F27B681B680A4320
:1035E0009A631DE07B681B68D96B3B685A68134679
:1035F0005B0013445B005A3B1F2202FA03F3DB43D8
:1036000019403B6818683B685A6813465B001344CE
:103610005B005A3B00FA03F27B681B680A43DA63DB
:103620007B681B689B6803F00C03002B40F0E5806F
:103630003B681B68092B1CD97B681B6899693B6830
:103640001A6813465B0013441E3B072202FA03F379
:10365000DB4319403B6898683B681A6813465B0077
:1036600013441E3B00FA03F27B681B680A439A610D
:1036700019E07B681B6859693B681A6813465B0050
:103680001344072202FA03F3DB4319403B689868AE
:103690003B681A6813465B00134400FA03F27B6828
:1036A0001B680A435A613B685A697B681B68DB6880
:1036B000DB0803F003035B0002FA03F33B663B689D
:1036C0001B69013B032B4FD801A252F823F000BF26
:1036D000E13600080337000825370008473700089F
:1036E0007B681B681A6E944B13403A681268910607
:1036F0003A6E0A431A437B681B6842F000421A661E
:103700007EE07B681B685A6E8B4B13403A681268E8
:1037100091063A6E0A431A437B681B6842F00042E6
:103720005A666DE07B681B689A6E834B13403A685B
:10373000126891063A6E0A431A437B681B6842F08E
:1037400000429A665CE07B681B68DA6E7A4B134035
:103750003A68126891063A6E0A431A437B681B68FE
:1037600042F00042DA664BE07B681B681B6E03F098
:10377000F8423B681B689B069A4207D17B681B682E
:103780001A6E7B681B6822F000421A667B681B6811
:103790005B6E03F0F8423B681B689B069A4207D1B8
:1037A0007B681B685A6E7B681B6822F000425A6671
:1037B0007B681B689B6E03F0F8423B681B689B06A6
:1037C0009A4207D17B681B689A6E7B681B6822F05F
:1037D00000429A667B681B68DB6E03F0F8423B6828
:1037E0001B689B069A420AD17B681B68DA6E7B686D
:1037F0001B6822F00042DA6601E000BF00E000BF73
:103800007B681B689B6803F00303012B08D17B686E
:103810001B681B6803F00103012B01D1012300E0A9
:103820000023002B40F00A813B68DB68012B0FD09E
:103830007B681B68D3F8B0103B681B68012202FA52
:1038400003F3DA437B681B680A40C3F8B02049E001
:103850007B681B68D3F8B0103B681B6801229A4054
:103860007B681B680A43C3F8B0203B681B68092BC0
:103870001CD97B681B6899693B681A6813465B0012
:1038800013441B3B072202FA03F3DB4319403B6856
:1038900098683B681A6813465B0013441B3B00FAA8
:1038A00003F27B681B680A439A611BE07B681B6814
:1038B00059693B681B685A1C13465B001344072276
:1038C00002FA03F3DB4319403B6898683B681B68C6
:1038D0005A1C13465B00134400FA03F27B681B6812
:1038E0000A435A61154BFB653B681B68102B05D1D9
:1038F000FB6D9B6803F40003002B15D03B681B682D
:10390000112B05D1FB6D9B6803F08073002B0BD04E
:103910003B681B68122B40F09180FB6D9B6803F4A1
:103920008003002B40F08A807B681B68B3F1A04FB6
:1039300008D1034BFB6008E000F0FF830003005058
:10394000000100504FF0A043FB607B681B689B6840
:1039500003F00303012B08D17B681B681B6803F08D
:103960000103012B01D1012300E00023002B50D1E2
:10397000FB68002B10D0FB689B6803F00303012B4E
:1039800007D1FB681B6803F00103012B01D1012360
:1039900000E00023002B3CD13B681B68102B1DD19D
:1039A0007B681B68B3F1A04F18D1FB6D9B6843F493
:1039B0000002FB6D9A60274B1B68274AA2FB03237A
:1039C0009A0C13469B0013445B00BB6002E0BB688B
:1039D000013BBB60BB68002BF9D12EE03B681B6844
:1039E000112B0BD17B681B68B3F1A04F06D1FB6D87
:1039F0009B6843F08072FB6D9A601EE03B681B6819
:103A0000122B1AD1FB6D9B6843F48002FB6D9A6008
:103A100013E07B681B6C43F020027B681A6401236F
:103A200087F867300AE07B681B6C43F020027B68F4
:103A30001A64012387F8673000E000BF7B6800222A
:103A400083F83C2097F8673018466C37BD465DF820
:103A5000047B70470000002083DE1B4380B499B0D4
:103A600000AF78603960002387F85F307B681B689F
:103A7000B3F1A04F02D15A4BBB6002E04FF0A0431C
:103A8000BB60BB68002B01D10123A2E07B6893F8E7
:103A90003C30012B01D102239BE07B68012283F89B
:103AA0003C207B681B689B6803F00403002B7FD1DC
:103AB000BB689B6803F00403002B79D1494BBB65BD
:103AC0003B681B68002B40D0BB6D9B6823F46042B1
:103AD0003B6859687B6893F830305B030B431A43AB
:103AE000BB6D9A607B681B689B6803F00303012B26
:103AF00008D17B681B681B6803F00103012B01D10F
:103B0000012300E00023002B5CD1BB689B6803F01D
:103B10000303012B07D1BB681B6803F00103012BD2
:103B200001D1012300E00023002B4BD1BB6D9B682A
:103B300023F4716323F00F033A6811683A689268BE
:103B40000A431A43BB6D9A603CE0BB6D9B6823F44B
:103B50006042BB6D9A607B681B689B6803F003033F
:103B6000012B08D17B681B681B6803F00103012B44
:103B700001D1012300E00023002B23D1BB689B6807
:103B800003F00303012B07D1BB681B6803F001039B
:103B9000012B01D1012300E00023002B12D1BB6DCA
:103BA0009B6823F4716323F00F03BA6D936009E0FF
:103BB0007B681B6C43F020027B681A64012387F842
:103BC0005F3000E000BF7B68002283F83C2097F85C
:103BD0005F3018466437BD465DF8047B704700BF10
:103BE000000100500003005080B584B000AF786041
:103BF0000023FB607B681B689B6803F00303012BB9
:103C000008D17B681B681B6803F00103012B01D1FD
:103C1000012300E00023002B43D17B681B689A68D6
:103C2000224B1340002B0DD07B681B6C43F010021D
:103C30007B681A647B685B6C43F001027B685A64A2
:103C400001232FE07B681B689A687B681B6842F041
:103C500001029A60FFF7EEF8F8601BE0FFF7EAF860
:103C60000246FB68D31A022B14D97B681B681B68B9
:103C700003F00103012B0DD07B681B6C43F0100295
:103C80007B681A647B685B6C43F001027B685A6452
:103C9000012307E07B681B681B6803F00103012B0D
:103CA000DCD1002318461037BD4680BD3F000080A0
:103CB00080B584B000AF78600023FB607B681B6830
:103CC0009B6803F00303012B08D17B681B681B680A
:103CD00003F00103012B01D1012300E00023002B9D
:103CE00047D07B681B689B6803F00D03012B0FD145
:103CF0007B681B689A687B681B6842F002029A60C6
:103D00007B681B6803221A60FFF794F8F86029E0CB
:103D10007B681B6C43F010027B681A647B685B6CE9
:103D200043F001027B685A64012323E0FFF782F825
:103D30000246FB68D31A022B14D97B681B689B6868
:103D400003F00103012B0DD17B681B6C43F01002C3
:103D50007B681A647B685B6C43F001027B685A6481
:103D6000012307E07B681B689B6803F00103012BBC
:103D7000DCD0002318461037BD4680BD80B485B026
:103D800000AF78607B6803F00703FB600C4BDB68D7
:103D9000BB60BA684FF6FF031340BB60FB681A02B2
:103DA000BB68134343F0BF6343F40033BB60044A72
:103DB000BB68D36000BF1437BD465DF8047B704715
:103DC00000ED00E080B400AF044BDB681B0A03F099
:103DD00007031846BD465DF8047B704700ED00E020
:103DE00080B483B000AF0346FB7197F90730002B16
:103DF0000BDBFB7903F01F02074997F907305B09DA
:103E0000012000FA02F241F8232000BF0C37BD4622
:103E10005DF8047B704700BF00E100E080B483B030
:103E200000AF03463960FB7197F90730002B0ADBBE
:103E30003B68DAB20C4997F907301201D2B20B4451
:103E400083F800230AE03B68DAB20849FB7903F003
:103E50000F03043B1201D2B20B441A7600BF0C3799
:103E6000BD465DF8047B704700E100E000ED00E036
:103E700080B489B000AFF860B9607A60FB6803F085
:103E80000703FB61FB69C3F10703042B28BF04236D
:103E9000BB61FB690433062B02D9FB69033B00E0DD
:103EA00000237B614FF0FF32BB6902FA03F3DA4370
:103EB000BB681A407B699A404FF0FF317B6901FA79
:103EC00003F3D9437B680B40134318462437BD46A0
:103ED0005DF8047B7047000080B582B000AF786069
:103EE0007B68013BB3F1807F01D301230FE00A4AD5
:103EF0007B68013B53600F214FF0FF30FFF78EFFCF
:103F0000054B00229A60044B07221A6000231846D2
:103F10000837BD4680BD00BF10E000E080B582B02C
:103F200000AF78607868FFF729FF00BF0837BD460B
:103F300080BD80B586B000AF0346B9607A60FB7380
:103F400000237B61FFF73EFF78617A68B968786982
:103F5000FFF78EFF024697F90F3011461846FFF71C
:103F60005DFF00BF1837BD4680BD80B582B000AF91
:103F70000346FB7197F907301846FFF731FF00BF82
:103F80000837BD4680BD80B582B000AF78607868E4
:103F9000FFF7A2FF034618460837BD4680BD000064
:103FA000F0B587B000AFF860B960C7E9002301231E
:103FB000FB750023BB7500237B752F4B1B7E012BEC
:103FC00001D1022354E02C4B01221A764CF25030DE
:103FD00000F0A8F80346FB75FB7D002B44D1FB687D
:103FE000012B02D101237B7507E0FB68022B02D174
:103FF00002237B7501E004237B750023BB752DE054
:10400000BB7D5A00BB6802EB030CBB7D1901D7E9ED
:104010000023C1F12006A1F1200022FA01F403FAE5
:1040200006F6344323FA00F0044323FA01F5A3B261
:104030001946604600F05AF84CF2503000F072F821
:104040000346FB750D4B1B690C4A23F001031361FA
:10405000FB7D002B07D1BB7D0133BB75BA7D7B7D1A
:104060009A42CDD300E000BF034B00221A76FB7DBD
:1040700018461C37BD46F0BDE80500200020024070
:1040800080B483B000AF0023FB710D4B1B6903F0BC
:104090008003002B0DD00A4B0A4A5A60084B0A4A8B
:1040A0005A60074B1B6903F08003002B01D00123EA
:1040B000FB71FB7918460C37BD465DF8047B7047F1
:1040C0000020024023016745AB89EFCD80B400AFEB
:1040D000054B1B69044A43F0800313610023184613
:1040E000BD465DF8047B70470020024080B483B079
:1040F00000AF78600B467B80084B0022DA61084BEA
:104100001B69074A43F0010313617B687A881A80B0
:1041100000BF0C37BD465DF8047B7047E805002002
:104120000020024080B584B000AF7860FEF782FEC8
:10413000F86010E07B68B3F1FF3F0CD07B68002B88
:1041400007D0FEF777FE0246FB68D31A7A689A42D8
:1041500001D203231FE0124BDB6803F00103012BA4
:10416000E8D00F4BDB6803F02003202B02D10C4B6F
:104170002022DA600A4BDB6803F01003102B05D015
:10418000074BDB6803F00403042B03D100F00AF8AB
:10419000012300E0002318461037BD4680BD00BF54
:1041A0000020024080B483B000AF00237B60144B3A
:1041B000DB6803F01003102B09D1124BDB6943F0CD
:1041C0000203104AD3617B6843F010037B600C4B01
:1041D000DB6803F00403042B09D10A4BDB6943F0CD
:1041E0000103084AD3617B6843F004037B60044AFF
:1041F0007B68D36000BF0C37BD465DF8047B704719
:1042000000200240E805002080B584B000AF78604F
:1042100039600123FB730023BB602E4B1B7E012BF7
:1042200001D1022352E02B4B01221A767B681B68D6
:10423000012B15D14CF25030FFF774FF0346002BD1
:1042400040D100F04BF84CF25030FFF76BFF0346C3
:10425000FB73214B1B69204A23F00403136131E0F7
:104260004CF25030FFF75EFF0346002B2AD13B682B
:104270004FF0FF321A607B685B68BB6019E0B8687A
:1042800000F046F84CF25030FFF74CFF0346FB734A
:10429000114B1B69104A23F002031361FB7B002BB7
:1042A00003D03B68BA681A600CE0BB6803F5006392
:1042B000BB607B689B68DA027B685B681344BA6802
:1042C0009A42DCD3034B00221A76FB7B1846103748
:1042D000BD4680BDE80500200020024080B400AF4C
:1042E000094B0022DA61094B1B69084A43F00403B9
:1042F0001361064B1B69054A43F04003136100BF7D
:10430000BD465DF8047B7047E805002000200240B0
:1043100080B483B000AF78600B4B0022DA610B4BA6
:104320001B690A4A43F002031361084A7B68536120
:10433000064B1B69054A43F04003136100BF0C376D
:10434000BD465DF8047B7047E80500200020024070
:1043500080B487B000AF7860396000237B614EE1A4
:104360003B681A6801217B6901FA03F31340FB6083
:10437000FB68002B00F040813B685B6803F003039F
:10438000012B05D03B685B6803F00303022B30D19F
:104390007B689B683B617B695B00032202FA03F345
:1043A000DB433A6913403B613B68DA687B695B0039
:1043B00002FA03F33A6913433B617B683A699A60F6
:1043C0007B685B683B6101227B6902FA03F3DB4394
:1043D0003A6913403B613B685B681B0903F00102CB
:1043E0007B6902FA03F33A6913433B617B683A69DC
:1043F0005A603B685B6803F00303032B17D07B68AC
:10440000DB683B617B695B00032202FA03F3DB4359
:104410003A6913403B613B689A687B695B0002FA2A
:1044200003F33A6913433B617B683A69DA603B689E
:104430005B6803F00303022B23D17B69DA087B68F6
:10444000083253F822303B617B6903F007039B007D
:104450000F2202FA03F3DB433A6913403B613B68E6
:104460001A697B6903F007039B0002FA03F33A69B8
:1044700013433B617B69DA087B680832396943F88A
:1044800022107B681B683B617B695B00032202FA98
:1044900003F3DB433A6913403B613B685B6803F01D
:1044A00003027B695B0002FA03F33A6913433B6141
:1044B0007B683A691A603B685B6803F44033002B01
:1044C00000F09A80554B9B69544A43F00103936175
:1044D000524B9B6903F00103BB60BB68504A7B6988
:1044E0009B08023352F823303B617B6903F00303DE
:1044F0009B000F2202FA03F3DB433A6913403B614E
:104500007B68B3F1904F13D07B68464A93420DD03D
:104510007B68454A934207D07B68444A934201D165
:10452000032306E0052304E0022302E0012300E068
:1045300000237A6902F00302920093403A69134320
:104540003B6137497B699B0802333A6941F8232074
:10455000374B9B683B61FB68DB433A6913403B6127
:104560003B685B6803F48013002B03D03A69FB6857
:1045700013433B612E4A3B6993602D4BDB683B61E3
:10458000FB68DB433A6913403B613B685B6803F4BB
:104590000013002B03D03A69FB6813433B61244AA4
:1045A0003B69D360224B5B683B61FB68DB433A6944
:1045B00013403B613B685B6803F40033002B03D07E
:1045C0003A69FB6813433B61194A3B695360184BD6
:1045D0001B683B61FB68DB433A6913403B613B6806
:1045E0005B6803F48033002B03D03A69FB68134304
:1045F0003B610F4A3B6913607B6901337B613B6818
:104600001A687B6922FA03F3002B7FF4A9AE00BF7E
:1046100000BF1C37BD465DF8047B704700100240A8
:10462000000001400004004800080048000C004859
:104630000004014080B485B000AF78600B467B80F9
:104640007B681A697B881340002B02D00123FB731F
:1046500001E00023FB73FB7B18461437BD465DF871
:10466000047B704780B483B000AF78600B467B80DA
:1046700013467B707B78002B03D07A887B689A6125
:1046800002E07A887B689A6200BF0C37BD465DF80D
:10469000047B704780B5ADF5007D00AF07F5007372
:1046A000A3F5FE73186007F50073A3F5FE731B688E
:1046B000002B02D1012301F023B807F50073A3F505
:1046C000FE731B681B6803F00103002B00F07D8163
:1046D000BC4B5B6803F00C03042B0CD0B94B5B683C
:1046E00003F00C03082B5CD1B64B5B6803F48033FA
:1046F000B3F5803F55D14FF40033C7F8F031D7F808
:10470000F03193FAA3F3C7F8EC31D7F8EC31B3FAF0
:1047100083F3DBB25B09DBB243F00103DBB2012BB5
:1047200002D1A84B1B6815E04FF40033C7F8E831FD
:10473000D7F8E83193FAA3F3C7F8E4314FF4003324
:10474000C7F8E031D7F8E03193FAA3F3C7F8DC31CA
:104750009C4B5B6A4FF40032C7F8D821D7F8D821B8
:1047600092FAA2F2C7F8D421D7F8D421B2FA82F291
:10477000D2B242F02002D2B202F01F02012101FAAD
:1047800002F21340002B00F01F8107F50073A3F520
:10479000FE731B685B68002B40F01681012300F05C
:1047A000AFBF07F50073A3F5FE731B685B68B3F535
:1047B000803F06D1834B1B68824A43F480331360E9
:1047C00036E007F50073A3F5FE731B685B68002BEA
:1047D0000CD17C4B1B687B4A23F480331360794BEC
:1047E0001B68784A23F48023136021E007F50073E7
:1047F000A3F5FE731B685B68B3F5A02F0CD1714B5A
:104800001B68704A43F4802313606E4B1B686D4A2B
:1048100043F4803313600BE06A4B1B68694A23F44E
:1048200080331360674B1B68664A23F48023136050
:10483000644BDB6A23F00F0207F50073A3F5FE73E8
:104840001B689B685F491343CB6207F50073A3F5B0
:10485000FE731B685B68002B59D0FEF7EBFAC7F8B4
:10486000F8010AE0FEF7E6FA0246D7F8F831D31A63
:10487000642B02D9032300F043BF4FF40033C7F881
:10488000D031D7F8D03193FAA3F3C7F8CC31D7F8A9
:10489000CC31B3FA83F3DBB25B09DBB243F0010343
:1048A000DBB2012B02D1474B1B6815E04FF40033FC
:1048B000C7F8C831D7F8C83193FAA3F3C7F8C431A1
:1048C0004FF40033C7F8C031D7F8C03193FAA3F3DF
:1048D000C7F8BC313B4B5B6A4FF40032C7F8B821D4
:1048E000D7F8B82192FAA2F2C7F8B421D7F8B421C8
:1048F000B2FA82F2D2B242F02002D2B202F01F0229
:10490000012101FA02F21340002BABD05DE0FEF76B
:1049100091FAC7F8F8010AE0FEF78CFA0246D7F8D8
:10492000F831D31A642B02D9032300F0E9BE4FF407
:104930000033C7F8B031D7F8B03193FAA3F3C7F812
:10494000AC31D7F8AC31B3FA83F3DBB25B09DBB23D
:1049500043F00103DBB2012B02D11A4B1B6815E0B7
:104960004FF40033C7F8A831D7F8A83193FAA3F36E
:10497000C7F8A4314FF40033C7F8A031D7F8A031FD
:1049800093FAA3F3C7F89C310E4B5B6A4FF40032E5
:10499000C7F89821D7F8982192FAA2F2C7F8942183
:1049A000D7F89421B2FA82F2D2B242F02002D2B207
:1049B00002F01F02012101FA02F21340002BABD1D9
:1049C00003E000BF0010024000BF07F50073A3F52D
:1049D000FE731B681B6803F00203002B00F07D814F
:1049E000A64B5B6803F00C03002B0BD0A34B5B685A
:1049F00003F00C03082B72D1A04B5B6803F48033E7
:104A0000002B6CD10223C7F89031D7F8903193FA7C
:104A1000A3F3C7F88C31D7F88C31B3FA83F3DBB248
:104A20005B09DBB243F00103DBB2012B02D1934BF4
:104A30001B6813E00223C7F88831D7F8883193FA4E
:104A4000A3F3C7F884310223C7F88031D7F8803147
:104A500093FAA3F3C7F87C31884B5B6A0222C7F84C
:104A60007821D7F8782192FAA2F2C7F87421D7F802
:104A70007421B2FA82F2D2B242F02002D2B202F033
:104A80001F02012101FA02F21340002B0AD007F5A0
:104A90000073A3F5FE731B681B69012B02D0012371
:104AA00000F02EBE754B1B6823F0F80207F500736B
:104AB000A3F5FE731B685B69F821C7F87011D7F87E
:104AC000701191FAA1F1C7F86C11D7F86C11B1FA15
:104AD00081F1C9B28B40694913430B60FDE007F5D2
:104AE0000073A3F5FE731B681B69002B00F0888020
:104AF0000123C7F86831D7F8683193FAA3F3C7F8F0
:104B00006431D7F86431B3FA83F3DBB203F1845331
:104B100003F584139B001A4601231360FEF78AF9FC
:104B2000C7F8F8010AE0FEF785F90246D7F8F83130
:104B3000D31A022B02D9032300F0E2BD0223C7F8E7
:104B40006031D7F8603193FAA3F3C7F85C31D7F836
:104B50005C31B3FA83F3DBB25B09DBB243F00103F0
:104B6000DBB2012B02D1454B1B6813E00223C7F8CF
:104B70005831D7F8583193FAA3F3C7F854310223C8
:104B8000C7F85031D7F8503193FAA3F3C7F84C3136
:104B90003A4B5B6A0222C7F84821D7F8482192FABB
:104BA000A2F2C7F84421D7F84421B2FA82F2D2B275
:104BB00042F02002D2B202F01F02012101FA02F2F9
:104BC0001340002BAFD02D4B1B6823F0F80207F5E4
:104BD0000073A3F5FE731B685B69F821C7F84011E9
:104BE000D7F8401191FAA1F1C7F83C11D7F83C1160
:104BF000B1FA81F1C9B28B40204913430B606CE0DC
:104C00000123C7F83831D7F8383193FAA3F3C7F83E
:104C10003431D7F83431B3FA83F3DBB203F1845380
:104C200003F584139B001A4600231360FEF702F974
:104C3000C7F8F8010AE0FEF7FDF80246D7F8F831A8
:104C4000D31A022B02D9032300F05ABD0223C7F85E
:104C50003031D7F8303193FAA3F3C7F82C31D7F8B5
:104C60002C31B3FA83F3DBB25B09DBB243F001030F
:104C7000DBB2012B04D1014B1B6815E00010024090
:104C80000223C7F82831D7F8283193FAA3F3C7F8DD
:104C900024310223C7F82031D7F8203193FAA3F347
:104CA000C7F81C31C84B5B6A0222C7F81821D7F835
:104CB000182192FAA2F2C7F81421D7F81421B2FAF7
:104CC00082F2D2B242F02002D2B202F01F020121DF
:104CD00001FA02F21340002BADD107F50073A3F5E2
:104CE000FE731B681B6803F00803002B00F01081A3
:104CF00007F50073A3F5FE731B689B69002B79D041
:104D00000123C7F81031D7F8103193FAA3F3C7F88D
:104D10000C31D7F80C31B3FA83F3DBB21A46AB4B44
:104D200013449B001A4601231360FEF783F8C7F86B
:104D3000F8010AE0FEF77EF80246D7F8F831D31AF8
:104D4000022B02D9032300F0DBBC0223C7F8083191
:104D5000D7F8083193FAA3F3C7F8043107F50073C5
:104D6000A3F5807302221A6007F50073A3F5807320
:104D70001B6893FAA3F207F50073A3F582731A6018
:104D800007F50073A3F5847302221A6007F5007318
:104D9000A3F584731B6893FAA3F207F50073A3F5D8
:104DA00086731A60884B5A6A07F50073A3F58873F7
:104DB0000221196007F50073A3F588731B6893FA45
:104DC000A3F107F50073A3F58A73196007F5007363
:104DD000A3F58A731B68B3FA83F3DBB243F0600375
:104DE000DBB203F01F03012101FA03F31340002B90
:104DF000A0D08DE007F50073A3F58C7301221A6033
:104E000007F50073A3F58C731B6893FAA3F207F5FB
:104E10000073A3F58E731A6007F50073A3F58E7304
:104E20001B68B3FA83F3DBB21A46684B13449B004A
:104E30001A4600231360FDF7FDFFC7F8F8010AE0EA
:104E4000FDF7F8FF0246D7F8F831D31A022B02D942
:104E5000032300F055BC07F50073A3F590730222FD
:104E60001A6007F50073A3F590731B6893FAA3F219
:104E700007F50073A3F592731A6007F50073A3F5A5
:104E8000947302221A6007F50073A3F594731B68EC
:104E900093FAA3F207F50073A3F596731A6007F56A
:104EA0000073A3F5987302221A6007F50073A3F547
:104EB00098731B6893FAA3F207F50073A3F59A732E
:104EC0001A60414B5A6A07F50073A3F59C730221DF
:104ED000196007F50073A3F59C731B6893FAA3F19F
:104EE00007F50073A3F59E73196007F50073A3F52A
:104EF0009E731B68B3FA83F3DBB243F06003DBB24B
:104F000003F01F03012101FA03F31340002B97D193
:104F100007F50073A3F5FE731B681B6803F0040319
:104F2000002B00F0A181002387F8FF31264BDB69BD
:104F300003F08053002B16D1234BDB69224A43F048
:104F40008053D361204BDB6903F0805207F5007377
:104F5000A3F5FC731A6007F50073A3F5FC731B68D7
:104F6000012387F8FF311A4B1B6803F48073002B71
:104F70001AD1174B1B68164A43F480731360FDF770
:104F800059FFC7F8F80109E0FDF754FF0246D7F8CA
:104F9000F831D31A642B01D90323B1E30C4B1B68FE
:104FA00003F48073002BEFD007F50073A3F5FE73B5
:104FB0001B68DB68012B0DD1034B1B6A024A43F0CF
:104FC000010313623CE000BF0010024020819010FA
:104FD0000070004007F50073A3F5FE731B68DB68E3
:104FE000002B0CD1C14B1B6AC04A23F00103136292
:104FF000BE4B1B6ABD4A23F00403136220E007F591
:105000000073A3F5FE731B68DB68052B0CD1B74B4F
:105010001B6AB64A43F004031362B44B1B6AB34ADB
:1050200043F0010313620BE0B04B1B6AAF4A23F05D
:1050300001031362AD4B1B6AAC4A23F004031362F5
:1050400007F50073A3F5FE731B68DB68002B00F007
:105050008180FDF7EFFEC7F8F8010BE0FDF7EAFEEF
:105060000246D7F8F831D31A41F28832934201D977
:10507000032345E307F50073A3F5A07302221A602A
:1050800007F50073A3F5A0731B6893FAA3F207F565
:105090000073A3F5A2731A6007F50073A3F5A47358
:1050A00002221A6007F50073A3F5A4731B6893FA34
:1050B000A3F207F50073A3F5A6731A6007F5007352
:1050C000A3F5A6731B68B3FA83F3DBB25B09DBB20B
:1050D00043F00203DBB2022B02D1844B1B6A13E0C4
:1050E00007F50073A3F5A87302221A6007F5007391
:1050F000A3F5A8731B6893FAA3F207F50073A3F551
:10510000AA731A60794B5B6A07F50072A2F5AC725C
:105110000221116007F50072A2F5AC72126892FAD2
:10512000A2F107F50072A2F5AE72116007F50072E8
:10513000A2F5AE721268B2FA82F2D2B242F0400226
:10514000D2B202F01F02012101FA02F21340002B39
:1051500084D07FE0FDF76EFEC7F8F8010BE0FDF7A5
:1051600069FE0246D7F8F831D31A41F288329342E9
:1051700001D90323C4E207F50073A3F5B07302223B
:105180001A6007F50073A3F5B0731B6893FAA3F2D6
:1051900007F50073A3F5B2731A6007F50073A3F562
:1051A000B47302221A6007F50073A3F5B4731B6889
:1051B00093FAA3F207F50073A3F5B6731A6007F527
:1051C0000073A3F5B6731B68B3FA83F3DBB25B0914
:1051D000DBB243F00203DBB2022B02D1434B1B6A6A
:1051E00013E007F50073A3F5B87302221A6007F500
:1051F0000073A3F5B8731B6893FAA3F207F5007365
:10520000A3F5BA731A60394B5B6A07F50072A2F511
:10521000BC720221116007F50072A2F5BC7212681F
:1052200092FAA2F107F50072A2F5BE72116007F5BD
:105230000072A2F5BE721268B2FA82F2D2B242F0E5
:105240004002D2B202F01F02012101FA02F2134021
:10525000002B84D197F8FF31012B05D1234BDB695B
:10526000224A23F08053D36107F50073A3F5FE7340
:105270001B68DB69002B00F042821C4B5B6803F06B
:105280000C03082B00F0138207F50073A3F5FE73DF
:105290001B68DB69022B40F0628107F50073A3F500
:1052A000C0734FF080721A6007F50073A3F5C073E6
:1052B0001B6893FAA3F207F50073A3F5C2731A6093
:1052C00007F50073A3F5C2731B68B3FA83F3DBB26F
:1052D00003F1845303F584139B001A4600231360E3
:1052E000FDF7A8FDC7F8F8010CE000BF0010024070
:1052F000FDF7A0FD0246D7F8F831D31A022B01D9E9
:105300000323FDE107F50073A3F5C4734FF00072AA
:105310001A6007F50073A3F5C4731B6893FAA3F230
:1053200007F50073A3F5C6731A6007F50073A3F5BC
:10533000C6731B68B3FA83F3DBB25B09DBB243F0DD
:105340000103DBB2012B02D1B04B1B6827E007F54C
:105350000073A3F5C8734FF000721A6007F500736D
:10536000A3F5C8731B6893FAA3F207F50073A3F5BE
:10537000CA731A6007F50073A3F5CC734FF000727F
:105380001A6007F50073A3F5CC731B6893FAA3F2B8
:1053900007F50073A3F5CE731A609C4B5B6A07F5A3
:1053A0000072A2F5D0724FF00071116007F5007223
:1053B000A2F5D072126892FAA2F107F50072A2F576
:1053C000D272116007F50072A2F5D2721268B2FAB9
:1053D00082F2D2B242F02002D2B202F01F020121C8
:1053E00001FA02F21340002B82D1884B5B6823F450
:1053F000741207F50073A3F5FE731B68596A07F56D
:105400000073A3F5FE731B681B6A0B437F491343AC
:105410004B6007F50073A3F5D4734FF080721A60E8
:1054200007F50073A3F5D4731B6893FAA3F207F58D
:105430000073A3F5D6731A6007F50073A3F5D6734E
:105440001B68B3FA83F3DBB203F1845303F58413CF
:105450009B001A4601231360FDF7ECFCC7F8F80126
:1054600009E0FDF7E7FC0246D7F8F831D31A022B22
:1054700001D9032344E107F50073A3F5D8734FF076
:1054800000721A6007F50073A3F5D8731B6893FACE
:10549000A3F207F50073A3F5DA731A6007F500733A
:1054A000A3F5DA731B68B3FA83F3DBB25B09DBB2F3
:1054B00043F00103DBB2012B02D1544B1B6827E000
:1054C00007F50073A3F5DC734FF000721A6007F55F
:1054D0000073A3F5DC731B6893FAA3F207F500735E
:1054E000A3F5DE731A6007F50073A3F5E0734FF0C0
:1054F00000721A6007F50073A3F5E0731B6893FA56
:10550000A3F207F50073A3F5E2731A603F4B5B6AE1
:1055100007F50072A2F5E4724FF00071116007F513
:105520000072A2F5E472126892FAA2F107F5007215
:10553000A2F5E672116007F50072A2F5E672126834
:10554000B2FA82F2D2B242F02002D2B202F01F02CC
:10555000012101FA02F21340002B82D0CFE007F5BF
:105560000073A3F5E8734FF080721A6007F50073BB
:10557000A3F5E8731B6893FAA3F207F50073A3F58C
:10558000EA731A6007F50073A3F5EA731B68B3FAB0
:1055900083F3DBB203F1845303F584139B001A46B3
:1055A00000231360FDF746FCC7F8F80109E0FDF79A
:1055B00041FC0246D7F8F831D31A022B01D9032354
:1055C0009EE007F50073A3F5EC734FF000721A60CC
:1055D00007F50073A3F5EC731B6893FAA3F207F5C4
:1055E0000073A3F5EE731A6007F50073A3F5EE736D
:1055F0001B68B3FA83F3DBB25B09DBB243F0010350
:10560000DBB2012B04D1014B1B6829E000100240E2
:1056100007F50073A3F5F0734FF000721A6007F5F9
:105620000073A3F5F0731B6893FAA3F207F50073F8
:10563000A3F5F2731A6007F50073A3F5F4734FF046
:1056400000721A6007F50073A3F5F4731B6893FAF0
:10565000A3F207F50073A3F5F6731A602B4B5B6A90
:1056600007F50072A2F5F8724FF00071116007F5AE
:105670000072A2F5F872126892FAA2F107F50072B0
:10568000A2F5FA72116007F50072A2F5FA721268BB
:10569000B2FA82F2D2B242F02002D2B202F01F027B
:1056A000012101FA02F21340002B80D127E007F517
:1056B0000073A3F5FE731B68DB69012B01D1012385
:1056C0001EE0124B5B68C7F8F431D7F8F43103F4ED
:1056D000803207F50073A3F5FE731B681B6A9A42BC
:1056E0000BD1D7F8F43103F4701207F50073A3F56A
:1056F000FE731B685B6A9A4201D0012300E000231D
:10570000184607F50077BD4680BD00BF0010024077
:1057100080B59EB000AF7860396000237B677B68FE
:10572000002B01D1012362E1904B1B6803F00703BA
:105730003A689A4210D98D4B1B6823F007028B49B7
:105740003B6813430B60894B1B6803F007033A68FF
:105750009A4201D001234AE17B681B6803F00203EF
:10576000002B08D0824B5B6823F0F0027B689B68BB
:105770007F4913434B607B681B6803F00103002BD8
:1057800000F0DC807B685B68012B3CD14FF4003378
:105790003B673B6F93FAA3F3FB66FB6EB3FA83F3AD
:1057A000DBB25B09DBB243F00103DBB2012B02D1B8
:1057B0006F4B1B680FE04FF40033BB66BB6E93FA70
:1057C000A3F37B664FF400333B663B6E93FAA3F37F
:1057D000FB65674B5B6A4FF40032BA65BA6D92FAAB
:1057E000A2F27A657A6DB2FA82F2D2B242F0200267
:1057F000D2B202F01F02012101FA02F21340002B83
:105800007BD10123F3E07B685B68022B3CD14FF036
:1058100000733B653B6D93FAA3F3FB64FB6CB3FA37
:1058200083F3DBB25B09DBB243F00103DBB2012B94
:1058300002D14F4B1B680FE04FF00073BB64BB6C91
:1058400093FAA3F37B644FF000733B643B6C93FAD1
:10585000A3F3FB63464B5B6A4FF00072BA63BA6B0B
:1058600092FAA2F27A637A6BB2FA82F2D2B242F080
:105870002002D2B202F01F02012101FA02F213400B
:10588000002B3AD10123B2E002233B633B6B93FA36
:10589000A3F3FB62FB6AB3FA83F3DBB25B09DBB20F
:1058A00043F00103DBB2012B02D1314B1B680DE049
:1058B0000223BB62BB6A93FAA3F37B6202233B62BF
:1058C0003B6A93FAA3F3FB61294B5B6A0222BA613C
:1058D000BA6992FAA2F27A617A69B2FA82F2D2B223
:1058E00042F02002D2B202F01F02012101FA02F2BC
:1058F0001340002B01D1012379E01D4B5B6823F09D
:1059000003027B685B681A4913434B60FDF792FA08
:1059100078670AE0FDF78EFA02467B6FD31A41F2F0
:105920008832934201D9032361E0114B5B6803F095
:105930000C027B685B689B009A42EBD10B4B1B68A7
:1059400003F007033A689A4214D2084B1B6823F00D
:10595000070206493B6813430B60044B1B6803F0C6
:1059600007033A689A4205D0012340E00020024034
:10597000001002407B681B6803F00403002B08D072
:105980001D4B5B6823F4E0627B68DB681A491343B4
:105990004B607B681B6803F00803002B09D0164B93
:1059A0005B6823F460527B681B69DB001249134378
:1059B0004B6000F029F801460F4B5B6803F0F003E1
:1059C000F0223A613A6992FAA2F2FA60FA68B2FAFF
:1059D00082F2D2B2D340094AD35C21FA03F3084AD7
:1059E0001360084B1B681846FDF7E0F900231846C2
:1059F0007837BD4680BD00BF00100240208F0008F0
:105A0000000000200400002080B48BB000AF002311
:105A1000FB610023BB6100237B6200237B610023C9
:105A20003B62294B5B68FB61FB6903F00C03042BB1
:105A300002D0082B03D03CE0244B3B623CE0FB69E6
:105A400003F470134FF47012BA60BA6892FAA2F2BB
:105A50007A607A68B2FA82F2D2B2D3401C4AD35C3E
:105A60007B61194BDB6A03F00F030F223A613A693D
:105A700092FAA2F2FA60FA68B2FA82F2D2B2D34093
:105A8000144AD35CBB61FB6903F48033002B08D05C
:105A90000E4ABB69B2FBF3F27B6902FB03F37B6244
:105AA00004E07B690C4A02FB03F37B627B6A3B6286
:105AB00002E0064B3B6200BF3B6A18462C37BD46EE
:105AC0005DF8047B704700BF0010024000127A00AE
:105AD000388F0008488F000800093D0080B400AFEF
